{
  "_format": "hh-sol-artifact-1",
  "contractName": "BulkWithdraw",
  "sourceName": "contracts/BulkWithdraw.sol",
  "abi": [
    {
      "inputs": [],
      "stateMutability": "nonpayable",
      "type": "constructor"
    },
    {
      "anonymous": false,
      "inputs": [
        {
          "indexed": true,
          "internalType": "address",
          "name": "previousOwner",
          "type": "address"
        },
        {
          "indexed": true,
          "internalType": "address",
          "name": "newOwner",
          "type": "address"
        }
      ],
      "name": "OwnershipTransferred",
      "type": "event"
    },
    {
      "anonymous": false,
      "inputs": [
        {
          "indexed": true,
          "internalType": "uint16",
          "name": "id",
          "type": "uint16"
        }
      ],
      "name": "TokenAdded",
      "type": "event"
    },
    {
      "inputs": [
        {
          "internalType": "address",
          "name": "token",
          "type": "address"
        }
      ],
      "name": "addToken",
      "outputs": [],
      "stateMutability": "nonpayable",
      "type": "function"
    },
    {
      "inputs": [
        {
          "components": [
            {
              "internalType": "uint16",
              "name": "token",
              "type": "uint16"
            },
            {
              "internalType": "address",
              "name": "receiver",
              "type": "address"
            },
            {
              "internalType": "address",
              "name": "sender",
              "type": "address"
            },
            {
              "internalType": "uint256",
              "name": "amount",
              "type": "uint256"
            }
          ],
          "internalType": "struct BulkWithdraw.TokenInvoiceParams[]",
          "name": "params",
          "type": "tuple[]"
        }
      ],
      "name": "erc20sMultiOriginBulkTransferAmounts",
      "outputs": [],
      "stateMutability": "nonpayable",
      "type": "function"
    },
    {
      "inputs": [
        {
          "components": [
            {
              "internalType": "address",
              "name": "receiver",
              "type": "address"
            },
            {
              "internalType": "uint256",
              "name": "amount",
              "type": "uint256"
            }
          ],
          "internalType": "struct BulkWithdraw.InvoiceParams[]",
          "name": "params",
          "type": "tuple[]"
        }
      ],
      "name": "etherBulkTransferAmounts",
      "outputs": [],
      "stateMutability": "payable",
      "type": "function"
    },
    {
      "inputs": [
        {
          "internalType": "address",
          "name": "_token",
          "type": "address"
        }
      ],
      "name": "getTokenByAddress",
      "outputs": [
        {
          "internalType": "uint16",
          "name": "",
          "type": "uint16"
        }
      ],
      "stateMutability": "view",
      "type": "function"
    },
    {
      "inputs": [
        {
          "internalType": "uint16",
          "name": "_id",
          "type": "uint16"
        }
      ],
      "name": "getTokenById",
      "outputs": [
        {
          "internalType": "address",
          "name": "",
          "type": "address"
        }
      ],
      "stateMutability": "view",
      "type": "function"
    },
    {
      "inputs": [],
      "name": "owner",
      "outputs": [
        {
          "internalType": "address",
          "name": "",
          "type": "address"
        }
      ],
      "stateMutability": "view",
      "type": "function"
    },
    {
      "inputs": [],
      "name": "renounceOwnership",
      "outputs": [],
      "stateMutability": "nonpayable",
      "type": "function"
    },
    {
      "inputs": [
        {
          "internalType": "uint16",
          "name": "",
          "type": "uint16"
        }
      ],
      "name": "tokens",
      "outputs": [
        {
          "internalType": "address",
          "name": "",
          "type": "address"
        }
      ],
      "stateMutability": "view",
      "type": "function"
    },
    {
      "inputs": [
        {
          "internalType": "address",
          "name": "newOwner",
          "type": "address"
        }
      ],
      "name": "transferOwnership",
      "outputs": [],
      "stateMutability": "nonpayable",
      "type": "function"
    },
    {
      "stateMutability": "payable",
      "type": "receive"
    }
  ],
  "bytecode": "0x608060405234801561001057600080fd5b5061002d61002261003260201b60201c565b61003a60201b60201c565b6100fe565b600033905090565b60008060009054906101000a900473ffffffffffffffffffffffffffffffffffffffff169050816000806101000a81548173ffffffffffffffffffffffffffffffffffffffff021916908373ffffffffffffffffffffffffffffffffffffffff1602179055508173ffffffffffffffffffffffffffffffffffffffff168173ffffffffffffffffffffffffffffffffffffffff167f8be0079c531659141344cd1fd0a4f28419497f9722a3daafe3b4186f6b6457e060405160405180910390a35050565b6113378061010d6000396000f3fe60806040526004361061008a5760003560e01c806390f525201161005957806390f525201461013157806391ded8fa1461015a578063d48bfca714610197578063f2fde38b146101c0578063f3c20de0146101e957610091565b80630b4c695b146100965780634b5723ec146100d3578063715018a6146100ef5780638da5cb5b1461010657610091565b3661009157005b600080fd5b3480156100a257600080fd5b506100bd60048036038101906100b89190610a2e565b610226565b6040516100ca9190610a9c565b60405180910390f35b6100ed60048036038101906100e89190610cc7565b6102b1565b005b3480156100fb57600080fd5b506101046103ff565b005b34801561011257600080fd5b5061011b610413565b6040516101289190610a9c565b60405180910390f35b34801561013d57600080fd5b5061015860048036038101906101539190610e4b565b61043c565b005b34801561016657600080fd5b50610181600480360381019061017c9190610e94565b6105b5565b60405161018e9190610ed0565b60405180910390f35b3480156101a357600080fd5b506101be60048036038101906101b99190610e94565b610663565b005b3480156101cc57600080fd5b506101e760048036038101906101e29190610e94565b6107bc565b005b3480156101f557600080fd5b50610210600480360381019061020b9190610a2e565b61083f565b60405161021d9190610a9c565b60405180910390f35b6000808261ffff160361026e576040517f08c379a000000000000000000000000000000000000000000000000000000000815260040161026590610f48565b60405180910390fd5b600260008361ffff1661ffff16815260200190815260200160002060009054906101000a900473ffffffffffffffffffffffffffffffffffffffff169050919050565b6102b9610872565b6000805b82518160ff16101561030b57828160ff16815181106102df576102de610f68565b5b602002602001015160200151826102f69190610fc6565b9150808061030390611007565b9150506102bd565b504781111561034f576040517f08c379a0000000000000000000000000000000000000000000000000000000008152600401610346906110a2565b60405180910390fd5b60005b82518160ff1610156103fa57828160ff168151811061037457610373610f68565b5b60200260200101516000015173ffffffffffffffffffffffffffffffffffffffff166108fc848360ff16815181106103af576103ae610f68565b5b6020026020010151602001519081150290604051600060405180830381858888f193505050501580156103e6573d6000803e3d6000fd5b5080806103f290611007565b915050610352565b505050565b610407610872565b61041160006108f0565b565b60008060009054906101000a900473ffffffffffffffffffffffffffffffffffffffff16905090565b610444610872565b60005b81518161ffff1610156105b157600060026000848461ffff168151811061047157610470610f68565b5b60200260200101516000015161ffff1661ffff16815260200190815260200160002060009054906101000a900473ffffffffffffffffffffffffffffffffffffffff1690508073ffffffffffffffffffffffffffffffffffffffff166323b872dd848461ffff16815181106104e9576104e8610f68565b5b602002602001015160400151858561ffff168151811061050c5761050b610f68565b5b602002602001015160200151868661ffff168151811061052f5761052e610f68565b5b6020026020010151606001516040518463ffffffff1660e01b8152600401610559939291906110d1565b6020604051808303816000875af1158015610578573d6000803e3d6000fd5b505050506040513d601f19601f8201168201806040525081019061059c9190611140565b505080806105a99061116d565b915050610447565b5050565b6000805b6105c360016109b4565b8161ffff161015610658578273ffffffffffffffffffffffffffffffffffffffff16600260008361ffff1661ffff16815260200190815260200160002060009054906101000a900473ffffffffffffffffffffffffffffffffffffffff1673ffffffffffffffffffffffffffffffffffffffff1603610645578091505061065e565b80806106509061116d565b9150506105b9565b50600090505b919050565b61066b610872565b61067560016109c2565b600061068160016109b4565b9050600073ffffffffffffffffffffffffffffffffffffffff16600260008361ffff1661ffff16815260200190815260200160002060009054906101000a900473ffffffffffffffffffffffffffffffffffffffff1673ffffffffffffffffffffffffffffffffffffffff161461072d576040517f08c379a0000000000000000000000000000000000000000000000000000000008152600401610724906111e3565b60405180910390fd5b81600260008361ffff1661ffff16815260200190815260200160002060006101000a81548173ffffffffffffffffffffffffffffffffffffffff021916908373ffffffffffffffffffffffffffffffffffffffff1602179055508061ffff167fb09b8f18744a3f9fb7e9e6df22f3e1f85fd460cc2fd1875ba1754f6b43ff5f9e60405160405180910390a25050565b6107c4610872565b600073ffffffffffffffffffffffffffffffffffffffff168173ffffffffffffffffffffffffffffffffffffffff1603610833576040517f08c379a000000000000000000000000000000000000000000000000000000000815260040161082a90611275565b60405180910390fd5b61083c816108f0565b50565b60026020528060005260406000206000915054906101000a900473ffffffffffffffffffffffffffffffffffffffff1681565b61087a6109d8565b73ffffffffffffffffffffffffffffffffffffffff16610898610413565b73ffffffffffffffffffffffffffffffffffffffff16146108ee576040517f08c379a00000000000000000000000000000000000000000000000000000000081526004016108e5906112e1565b60405180910390fd5b565b60008060009054906101000a900473ffffffffffffffffffffffffffffffffffffffff169050816000806101000a81548173ffffffffffffffffffffffffffffffffffffffff021916908373ffffffffffffffffffffffffffffffffffffffff1602179055508173ffffffffffffffffffffffffffffffffffffffff168173ffffffffffffffffffffffffffffffffffffffff167f8be0079c531659141344cd1fd0a4f28419497f9722a3daafe3b4186f6b6457e060405160405180910390a35050565b600081600001549050919050565b6001816000016000828254019250508190555050565b600033905090565b6000604051905090565b600080fd5b600080fd5b600061ffff82169050919050565b610a0b816109f4565b8114610a1657600080fd5b50565b600081359050610a2881610a02565b92915050565b600060208284031215610a4457610a436109ea565b5b6000610a5284828501610a19565b91505092915050565b600073ffffffffffffffffffffffffffffffffffffffff82169050919050565b6000610a8682610a5b565b9050919050565b610a9681610a7b565b82525050565b6000602082019050610ab16000830184610a8d565b92915050565b600080fd5b6000601f19601f8301169050919050565b7f4e487b7100000000000000000000000000000000000000000000000000000000600052604160045260246000fd5b610b0582610abc565b810181811067ffffffffffffffff82111715610b2457610b23610acd565b5b80604052505050565b6000610b376109e0565b9050610b438282610afc565b919050565b600067ffffffffffffffff821115610b6357610b62610acd565b5b602082029050602081019050919050565b600080fd5b600080fd5b610b8781610a7b565b8114610b9257600080fd5b50565b600081359050610ba481610b7e565b92915050565b6000819050919050565b610bbd81610baa565b8114610bc857600080fd5b50565b600081359050610bda81610bb4565b92915050565b600060408284031215610bf657610bf5610b79565b5b610c006040610b2d565b90506000610c1084828501610b95565b6000830152506020610c2484828501610bcb565b60208301525092915050565b6000610c43610c3e84610b48565b610b2d565b90508083825260208201905060408402830185811115610c6657610c65610b74565b5b835b81811015610c8f5780610c7b8882610be0565b845260208401935050604081019050610c68565b5050509392505050565b600082601f830112610cae57610cad610ab7565b5b8135610cbe848260208601610c30565b91505092915050565b600060208284031215610cdd57610cdc6109ea565b5b600082013567ffffffffffffffff811115610cfb57610cfa6109ef565b5b610d0784828501610c99565b91505092915050565b600067ffffffffffffffff821115610d2b57610d2a610acd565b5b602082029050602081019050919050565b600060808284031215610d5257610d51610b79565b5b610d5c6080610b2d565b90506000610d6c84828501610a19565b6000830152506020610d8084828501610b95565b6020830152506040610d9484828501610b95565b6040830152506060610da884828501610bcb565b60608301525092915050565b6000610dc7610dc284610d10565b610b2d565b90508083825260208201905060808402830185811115610dea57610de9610b74565b5b835b81811015610e135780610dff8882610d3c565b845260208401935050608081019050610dec565b5050509392505050565b600082601f830112610e3257610e31610ab7565b5b8135610e42848260208601610db4565b91505092915050565b600060208284031215610e6157610e606109ea565b5b600082013567ffffffffffffffff811115610e7f57610e7e6109ef565b5b610e8b84828501610e1d565b91505092915050565b600060208284031215610eaa57610ea96109ea565b5b6000610eb884828501610b95565b91505092915050565b610eca816109f4565b82525050565b6000602082019050610ee56000830184610ec1565b92915050565b600082825260208201905092915050565b7f69642073686f756c64206e6f7420626520300000000000000000000000000000600082015250565b6000610f32601283610eeb565b9150610f3d82610efc565b602082019050919050565b60006020820190508181036000830152610f6181610f25565b9050919050565b7f4e487b7100000000000000000000000000000000000000000000000000000000600052603260045260246000fd5b7f4e487b7100000000000000000000000000000000000000000000000000000000600052601160045260246000fd5b6000610fd182610baa565b9150610fdc83610baa565b9250828201905080821115610ff457610ff3610f97565b5b92915050565b600060ff82169050919050565b600061101282610ffa565b915060ff820361102557611024610f97565b5b600182019050919050565b7f546865726520617265206e6f7420656e6f7567682066756e64732073746f726560008201527f6420696e2074686520736d61727420636f6e7472616374000000000000000000602082015250565b600061108c603783610eeb565b915061109782611030565b604082019050919050565b600060208201905081810360008301526110bb8161107f565b9050919050565b6110cb81610baa565b82525050565b60006060820190506110e66000830186610a8d565b6110f36020830185610a8d565b61110060408301846110c2565b949350505050565b60008115159050919050565b61111d81611108565b811461112857600080fd5b50565b60008151905061113a81611114565b92915050565b600060208284031215611156576111556109ea565b5b60006111648482850161112b565b91505092915050565b6000611178826109f4565b915061ffff820361118c5761118b610f97565b5b600182019050919050565b7f546f6b656e20616c726561647920736574210000000000000000000000000000600082015250565b60006111cd601283610eeb565b91506111d882611197565b602082019050919050565b600060208201905081810360008301526111fc816111c0565b9050919050565b7f4f776e61626c653a206e6577206f776e657220697320746865207a65726f206160008201527f6464726573730000000000000000000000000000000000000000000000000000602082015250565b600061125f602683610eeb565b915061126a82611203565b604082019050919050565b6000602082019050818103600083015261128e81611252565b9050919050565b7f4f776e61626c653a2063616c6c6572206973206e6f7420746865206f776e6572600082015250565b60006112cb602083610eeb565b91506112d682611295565b602082019050919050565b600060208201905081810360008301526112fa816112be565b905091905056fea264697066735822122037ac6c454edda73fde3b4c29a1da4121d06e3835379ef581c8409e3a94e7bf8b64736f6c63430008120033",
  "linkReferences": {},
  "deployedLinkReferences": {}
}